{
  "_format": "hh-sol-artifact-1",
  "contractName": "NFT721",
  "sourceName": "contracts/NFT721.sol",
  "abi": [
    {
      "inputs": [],
      "stateMutability": "nonpayable",
      "type": "constructor"
    },
    {
      "anonymous": false,
      "inputs": [
        {
          "indexed": true,
          "internalType": "address",
          "name": "owner",
          "type": "address"
        },
        {
          "indexed": true,
          "internalType": "address",
          "name": "approved",
          "type": "address"
        },
        {
          "indexed": true,
          "internalType": "uint256",
          "name": "tokenId",
          "type": "uint256"
        }
      ],
      "name": "Approval",
      "type": "event"
    },
    {
      "anonymous": false,
      "inputs": [
        {
          "indexed": true,
          "internalType": "address",
          "name": "owner",
          "type": "address"
        },
        {
          "indexed": true,
          "internalType": "address",
          "name": "operator",
          "type": "address"
        },
        {
          "indexed": false,
          "internalType": "bool",
          "name": "approved",
          "type": "bool"
        }
      ],
      "name": "ApprovalForAll",
      "type": "event"
    },
    {
      "anonymous": false,
      "inputs": [
        {
          "indexed": true,
          "internalType": "address",
          "name": "previousOwner",
          "type": "address"
        },
        {
          "indexed": true,
          "internalType": "address",
          "name": "newOwner",
          "type": "address"
        }
      ],
      "name": "OwnershipTransferred",
      "type": "event"
    },
    {
      "anonymous": false,
      "inputs": [
        {
          "indexed": true,
          "internalType": "address",
          "name": "from",
          "type": "address"
        },
        {
          "indexed": true,
          "internalType": "address",
          "name": "to",
          "type": "address"
        },
        {
          "indexed": true,
          "internalType": "uint256",
          "name": "tokenId",
          "type": "uint256"
        }
      ],
      "name": "Transfer",
      "type": "event"
    },
    {
      "inputs": [
        {
          "internalType": "address",
          "name": "to",
          "type": "address"
        },
        {
          "internalType": "uint256",
          "name": "tokenId",
          "type": "uint256"
        }
      ],
      "name": "approve",
      "outputs": [],
      "stateMutability": "nonpayable",
      "type": "function"
    },
    {
      "inputs": [
        {
          "internalType": "address",
          "name": "owner",
          "type": "address"
        }
      ],
      "name": "balanceOf",
      "outputs": [
        {
          "internalType": "uint256",
          "name": "",
          "type": "uint256"
        }
      ],
      "stateMutability": "view",
      "type": "function"
    },
    {
      "inputs": [
        {
          "internalType": "uint256",
          "name": "tokenId",
          "type": "uint256"
        }
      ],
      "name": "burn",
      "outputs": [],
      "stateMutability": "nonpayable",
      "type": "function"
    },
    {
      "inputs": [
        {
          "internalType": "uint256",
          "name": "tokenId",
          "type": "uint256"
        }
      ],
      "name": "getApproved",
      "outputs": [
        {
          "internalType": "address",
          "name": "",
          "type": "address"
        }
      ],
      "stateMutability": "view",
      "type": "function"
    },
    {
      "inputs": [
        {
          "internalType": "address",
          "name": "owner",
          "type": "address"
        },
        {
          "internalType": "address",
          "name": "operator",
          "type": "address"
        }
      ],
      "name": "isApprovedForAll",
      "outputs": [
        {
          "internalType": "bool",
          "name": "",
          "type": "bool"
        }
      ],
      "stateMutability": "view",
      "type": "function"
    },
    {
      "inputs": [],
      "name": "name",
      "outputs": [
        {
          "internalType": "string",
          "name": "",
          "type": "string"
        }
      ],
      "stateMutability": "view",
      "type": "function"
    },
    {
      "inputs": [],
      "name": "owner",
      "outputs": [
        {
          "internalType": "address",
          "name": "",
          "type": "address"
        }
      ],
      "stateMutability": "view",
      "type": "function"
    },
    {
      "inputs": [
        {
          "internalType": "uint256",
          "name": "tokenId",
          "type": "uint256"
        }
      ],
      "name": "ownerOf",
      "outputs": [
        {
          "internalType": "address",
          "name": "",
          "type": "address"
        }
      ],
      "stateMutability": "view",
      "type": "function"
    },
    {
      "inputs": [],
      "name": "renounceOwnership",
      "outputs": [],
      "stateMutability": "nonpayable",
      "type": "function"
    },
    {
      "inputs": [
        {
          "internalType": "address",
          "name": "to",
          "type": "address"
        }
      ],
      "name": "safeMint",
      "outputs": [],
      "stateMutability": "nonpayable",
      "type": "function"
    },
    {
      "inputs": [
        {
          "internalType": "address",
          "name": "from",
          "type": "address"
        },
        {
          "internalType": "address",
          "name": "to",
          "type": "address"
        },
        {
          "internalType": "uint256",
          "name": "tokenId",
          "type": "uint256"
        }
      ],
      "name": "safeTransferFrom",
      "outputs": [],
      "stateMutability": "nonpayable",
      "type": "function"
    },
    {
      "inputs": [
        {
          "internalType": "address",
          "name": "from",
          "type": "address"
        },
        {
          "internalType": "address",
          "name": "to",
          "type": "address"
        },
        {
          "internalType": "uint256",
          "name": "tokenId",
          "type": "uint256"
        },
        {
          "internalType": "bytes",
          "name": "_data",
          "type": "bytes"
        }
      ],
      "name": "safeTransferFrom",
      "outputs": [],
      "stateMutability": "nonpayable",
      "type": "function"
    },
    {
      "inputs": [
        {
          "internalType": "address",
          "name": "operator",
          "type": "address"
        },
        {
          "internalType": "bool",
          "name": "approved",
          "type": "bool"
        }
      ],
      "name": "setApprovalForAll",
      "outputs": [],
      "stateMutability": "nonpayable",
      "type": "function"
    },
    {
      "inputs": [
        {
          "internalType": "bytes4",
          "name": "interfaceId",
          "type": "bytes4"
        }
      ],
      "name": "supportsInterface",
      "outputs": [
        {
          "internalType": "bool",
          "name": "",
          "type": "bool"
        }
      ],
      "stateMutability": "view",
      "type": "function"
    },
    {
      "inputs": [],
      "name": "symbol",
      "outputs": [
        {
          "internalType": "string",
          "name": "",
          "type": "string"
        }
      ],
      "stateMutability": "view",
      "type": "function"
    },
    {
      "inputs": [
        {
          "internalType": "uint256",
          "name": "tokenId",
          "type": "uint256"
        }
      ],
      "name": "tokenURI",
      "outputs": [
        {
          "internalType": "string",
          "name": "",
          "type": "string"
        }
      ],
      "stateMutability": "view",
      "type": "function"
    },
    {
      "inputs": [
        {
          "internalType": "address",
          "name": "from",
          "type": "address"
        },
        {
          "internalType": "address",
          "name": "to",
          "type": "address"
        },
        {
          "internalType": "uint256",
          "name": "tokenId",
          "type": "uint256"
        }
      ],
      "name": "transferFrom",
      "outputs": [],
      "stateMutability": "nonpayable",
      "type": "function"
    },
    {
      "inputs": [
        {
          "internalType": "address",
          "name": "newOwner",
          "type": "address"
        }
      ],
      "name": "transferOwnership",
      "outputs": [],
      "stateMutability": "nonpayable",
      "type": "function"
    }
  ],
  "bytecode": "0x60806040523480156200001157600080fd5b506040518060400160405280600681526020017f4e465437323100000000000000000000000000000000000000000000000000008152506040518060400160405280600381526020017f4d544b0000000000000000000000000000000000000000000000000000000000815250816000908051906020019062000096929190620001a6565b508060019080519060200190620000af929190620001a6565b505050620000d2620000c6620000d860201b60201c565b620000e060201b60201c565b620002bb565b600033905090565b6000600760009054906101000a900473ffffffffffffffffffffffffffffffffffffffff16905081600760006101000a81548173ffffffffffffffffffffffffffffffffffffffff021916908373ffffffffffffffffffffffffffffffffffffffff1602179055508173ffffffffffffffffffffffffffffffffffffffff168173ffffffffffffffffffffffffffffffffffffffff167f8be0079c531659141344cd1fd0a4f28419497f9722a3daafe3b4186f6b6457e060405160405180910390a35050565b828054620001b49062000256565b90600052602060002090601f016020900481019282620001d8576000855562000224565b82601f10620001f357805160ff191683800117855562000224565b8280016001018555821562000224579182015b828111156200022357825182559160200191906001019062000206565b5b50905062000233919062000237565b5090565b5b808211156200025257600081600090555060010162000238565b5090565b600060028204905060018216806200026f57607f821691505b602082108114156200028657620002856200028c565b5b50919050565b7f4e487b7100000000000000000000000000000000000000000000000000000000600052602260045260246000fd5b61308c80620002cb6000396000f3fe608060405234801561001057600080fd5b50600436106101165760003560e01c806370a08231116100a2578063a22cb46511610071578063a22cb465146102cb578063b88d4fde146102e7578063c87b56dd14610303578063e985e9c514610333578063f2fde38b1461036357610116565b806370a0823114610255578063715018a6146102855780638da5cb5b1461028f57806395d89b41146102ad57610116565b806323b872dd116100e957806323b872dd146101b557806340d097c3146101d157806342842e0e146101ed57806342966c68146102095780636352211e1461022557610116565b806301ffc9a71461011b57806306fdde031461014b578063081812fc14610169578063095ea7b314610199575b600080fd5b6101356004803603810190610130919061206c565b61037f565b60405161014291906124b8565b60405180910390f35b610153610461565b60405161016091906124d3565b60405180910390f35b610183600480360381019061017e91906120be565b6104f3565b6040516101909190612451565b60405180910390f35b6101b360048036038101906101ae9190612030565b610578565b005b6101cf60048036038101906101ca9190611f2a565b610690565b005b6101eb60048036038101906101e69190611ec5565b6106f0565b005b61020760048036038101906102029190611f2a565b61078c565b005b610223600480360381019061021e91906120be565b6107ac565b005b61023f600480360381019061023a91906120be565b610808565b60405161024c9190612451565b60405180910390f35b61026f600480360381019061026a9190611ec5565b6108ba565b60405161027c9190612735565b60405180910390f35b61028d610972565b005b6102976109fa565b6040516102a49190612451565b60405180910390f35b6102b5610a24565b6040516102c291906124d3565b60405180910390f35b6102e560048036038101906102e09190611ff4565b610ab6565b005b61030160048036038101906102fc9190611f79565b610c37565b005b61031d600480360381019061031891906120be565b610c99565b60405161032a91906124d3565b60405180910390f35b61034d60048036038101906103489190611eee565b610cab565b60405161035a91906124b8565b60405180910390f35b61037d60048036038101906103789190611ec5565b610d3f565b005b60007f80ac58cd000000000000000000000000000000000000000000000000000000007bffffffffffffffffffffffffffffffffffffffffffffffffffffffff1916827bffffffffffffffffffffffffffffffffffffffffffffffffffffffff1916148061044a57507f5b5e139f000000000000000000000000000000000000000000000000000000007bffffffffffffffffffffffffffffffffffffffffffffffffffffffff1916827bffffffffffffffffffffffffffffffffffffffffffffffffffffffff1916145b8061045a575061045982610e37565b5b9050919050565b6060600080546104709061295a565b80601f016020809104026020016040519081016040528092919081815260200182805461049c9061295a565b80156104e95780601f106104be576101008083540402835291602001916104e9565b820191906000526020600020905b8154815290600101906020018083116104cc57829003601f168201915b5050505050905090565b60006104fe82610ea1565b61053d576040517f08c379a000000000000000000000000000000000000000000000000000000000815260040161053490612655565b60405180910390fd5b6004600083815260200190815260200160002060009054906101000a900473ffffffffffffffffffffffffffffffffffffffff169050919050565b600061058382610808565b90508073ffffffffffffffffffffffffffffffffffffffff168373ffffffffffffffffffffffffffffffffffffffff1614156105f4576040517f08c379a00000000000000000000000000000000000000000000000000000000081526004016105eb906126d5565b60405180910390fd5b8073ffffffffffffffffffffffffffffffffffffffff16610613610f0d565b73ffffffffffffffffffffffffffffffffffffffff16148061064257506106418161063c610f0d565b610cab565b5b610681576040517f08c379a0000000000000000000000000000000000000000000000000000000008152600401610678906125b5565b60405180910390fd5b61068b8383610f15565b505050565b6106a161069b610f0d565b82610fce565b6106e0576040517f08c379a00000000000000000000000000000000000000000000000000000000081526004016106d7906126f5565b60405180910390fd5b6106eb8383836110ac565b505050565b6106f8610f0d565b73ffffffffffffffffffffffffffffffffffffffff166107166109fa565b73ffffffffffffffffffffffffffffffffffffffff161461076c576040517f08c379a000000000000000000000000000000000000000000000000000000000815260040161076390612675565b60405180910390fd5b61077f8161077a6008611308565b611316565b6107896008611334565b50565b6107a783838360405180602001604052806000815250610c37565b505050565b6107bd6107b7610f0d565b82610fce565b6107fc576040517f08c379a00000000000000000000000000000000000000000000000000000000081526004016107f390612715565b60405180910390fd5b6108058161134a565b50565b6000806002600084815260200190815260200160002060009054906101000a900473ffffffffffffffffffffffffffffffffffffffff169050600073ffffffffffffffffffffffffffffffffffffffff168173ffffffffffffffffffffffffffffffffffffffff1614156108b1576040517f08c379a00000000000000000000000000000000000000000000000000000000081526004016108a8906125f5565b60405180910390fd5b80915050919050565b60008073ffffffffffffffffffffffffffffffffffffffff168273ffffffffffffffffffffffffffffffffffffffff16141561092b576040517f08c379a0000000000000000000000000000000000000000000000000000000008152600401610922906125d5565b60405180910390fd5b600360008373ffffffffffffffffffffffffffffffffffffffff1673ffffffffffffffffffffffffffffffffffffffff168152602001908152602001600020549050919050565b61097a610f0d565b73ffffffffffffffffffffffffffffffffffffffff166109986109fa565b73ffffffffffffffffffffffffffffffffffffffff16146109ee576040517f08c379a00000000000000000000000000000000000000000000000000000000081526004016109e590612675565b60405180910390fd5b6109f86000611356565b565b6000600760009054906101000a900473ffffffffffffffffffffffffffffffffffffffff16905090565b606060018054610a339061295a565b80601f0160208091040260200160405190810160405280929190818152602001828054610a5f9061295a565b8015610aac5780601f10610a8157610100808354040283529160200191610aac565b820191906000526020600020905b815481529060010190602001808311610a8f57829003601f168201915b5050505050905090565b610abe610f0d565b73ffffffffffffffffffffffffffffffffffffffff168273ffffffffffffffffffffffffffffffffffffffff161415610b2c576040517f08c379a0000000000000000000000000000000000000000000000000000000008152600401610b2390612575565b60405180910390fd5b8060056000610b39610f0d565b73ffffffffffffffffffffffffffffffffffffffff1673ffffffffffffffffffffffffffffffffffffffff16815260200190815260200160002060008473ffffffffffffffffffffffffffffffffffffffff1673ffffffffffffffffffffffffffffffffffffffff16815260200190815260200160002060006101000a81548160ff0219169083151502179055508173ffffffffffffffffffffffffffffffffffffffff16610be6610f0d565b73ffffffffffffffffffffffffffffffffffffffff167f17307eab39ab6107e8899845ad3d59bd9653f200f220920489ca2b5937696c3183604051610c2b91906124b8565b60405180910390a35050565b610c48610c42610f0d565b83610fce565b610c87576040517f08c379a0000000000000000000000000000000000000000000000000000000008152600401610c7e906126f5565b60405180910390fd5b610c938484848461141c565b50505050565b6060610ca482611478565b9050919050565b6000600560008473ffffffffffffffffffffffffffffffffffffffff1673ffffffffffffffffffffffffffffffffffffffff16815260200190815260200160002060008373ffffffffffffffffffffffffffffffffffffffff1673ffffffffffffffffffffffffffffffffffffffff16815260200190815260200160002060009054906101000a900460ff16905092915050565b610d47610f0d565b73ffffffffffffffffffffffffffffffffffffffff16610d656109fa565b73ffffffffffffffffffffffffffffffffffffffff1614610dbb576040517f08c379a0000000000000000000000000000000000000000000000000000000008152600401610db290612675565b60405180910390fd5b600073ffffffffffffffffffffffffffffffffffffffff168173ffffffffffffffffffffffffffffffffffffffff161415610e2b576040517f08c379a0000000000000000000000000000000000000000000000000000000008152600401610e2290612515565b60405180910390fd5b610e3481611356565b50565b60007f01ffc9a7000000000000000000000000000000000000000000000000000000007bffffffffffffffffffffffffffffffffffffffffffffffffffffffff1916827bffffffffffffffffffffffffffffffffffffffffffffffffffffffff1916149050919050565b60008073ffffffffffffffffffffffffffffffffffffffff166002600084815260200190815260200160002060009054906101000a900473ffffffffffffffffffffffffffffffffffffffff1673ffffffffffffffffffffffffffffffffffffffff1614159050919050565b600033905090565b816004600083815260200190815260200160002060006101000a81548173ffffffffffffffffffffffffffffffffffffffff021916908373ffffffffffffffffffffffffffffffffffffffff160217905550808273ffffffffffffffffffffffffffffffffffffffff16610f8883610808565b73ffffffffffffffffffffffffffffffffffffffff167f8c5be1e5ebec7d5bd14f71427d1e84f3dd0314c0f7b2291e5b200ac8c7c3b92560405160405180910390a45050565b6000610fd982610ea1565b611018576040517f08c379a000000000000000000000000000000000000000000000000000000000815260040161100f90612595565b60405180910390fd5b600061102383610808565b90508073ffffffffffffffffffffffffffffffffffffffff168473ffffffffffffffffffffffffffffffffffffffff16148061109257508373ffffffffffffffffffffffffffffffffffffffff1661107a846104f3565b73ffffffffffffffffffffffffffffffffffffffff16145b806110a357506110a28185610cab565b5b91505092915050565b8273ffffffffffffffffffffffffffffffffffffffff166110cc82610808565b73ffffffffffffffffffffffffffffffffffffffff1614611122576040517f08c379a000000000000000000000000000000000000000000000000000000000815260040161111990612695565b60405180910390fd5b600073ffffffffffffffffffffffffffffffffffffffff168273ffffffffffffffffffffffffffffffffffffffff161415611192576040517f08c379a000000000000000000000000000000000000000000000000000000000815260040161118990612555565b60405180910390fd5b61119d8383836115ca565b6111a8600082610f15565b6001600360008573ffffffffffffffffffffffffffffffffffffffff1673ffffffffffffffffffffffffffffffffffffffff16815260200190815260200160002060008282546111f89190612870565b925050819055506001600360008473ffffffffffffffffffffffffffffffffffffffff1673ffffffffffffffffffffffffffffffffffffffff168152602001908152602001600020600082825461124f91906127e9565b92505081905550816002600083815260200190815260200160002060006101000a81548173ffffffffffffffffffffffffffffffffffffffff021916908373ffffffffffffffffffffffffffffffffffffffff160217905550808273ffffffffffffffffffffffffffffffffffffffff168473ffffffffffffffffffffffffffffffffffffffff167fddf252ad1be2c89b69c2b068fc378daa952ba7f163c4a11628f55a4df523b3ef60405160405180910390a4505050565b600081600001549050919050565b6113308282604051806020016040528060008152506115cf565b5050565b6001816000016000828254019250508190555050565b6113538161162a565b50565b6000600760009054906101000a900473ffffffffffffffffffffffffffffffffffffffff16905081600760006101000a81548173ffffffffffffffffffffffffffffffffffffffff021916908373ffffffffffffffffffffffffffffffffffffffff1602179055508173ffffffffffffffffffffffffffffffffffffffff168173ffffffffffffffffffffffffffffffffffffffff167f8be0079c531659141344cd1fd0a4f28419497f9722a3daafe3b4186f6b6457e060405160405180910390a35050565b6114278484846110ac565b6114338484848461167d565b611472576040517f08c379a0000000000000000000000000000000000000000000000000000000008152600401611469906124f5565b60405180910390fd5b50505050565b606061148382610ea1565b6114c2576040517f08c379a00000000000000000000000000000000000000000000000000000000081526004016114b990612635565b60405180910390fd5b60006006600084815260200190815260200160002080546114e29061295a565b80601f016020809104026020016040519081016040528092919081815260200182805461150e9061295a565b801561155b5780601f106115305761010080835404028352916020019161155b565b820191906000526020600020905b81548152906001019060200180831161153e57829003601f168201915b50505050509050600061156c611814565b90506000815114156115825781925050506115c5565b6000825111156115b757808260405160200161159f92919061242d565b604051602081830303815290604052925050506115c5565b6115c084611851565b925050505b919050565b505050565b6115d983836118f8565b6115e6600084848461167d565b611625576040517f08c379a000000000000000000000000000000000000000000000000000000000815260040161161c906124f5565b60405180910390fd5b505050565b61163381611ac6565b60006006600083815260200190815260200160002080546116539061295a565b90501461167a576006600082815260200190815260200160002060006116799190611d97565b5b50565b600061169e8473ffffffffffffffffffffffffffffffffffffffff16611bd7565b15611807578373ffffffffffffffffffffffffffffffffffffffff1663150b7a026116c7610f0d565b8786866040518563ffffffff1660e01b81526004016116e9949392919061246c565b602060405180830381600087803b15801561170357600080fd5b505af192505050801561173457506040513d601f19601f820116820180604052508101906117319190612095565b60015b6117b7573d8060008114611764576040519150601f19603f3d011682016040523d82523d6000602084013e611769565b606091505b506000815114156117af576040517f08c379a00000000000000000000000000000000000000000000000000000000081526004016117a6906124f5565b60405180910390fd5b805181602001fd5b63150b7a0260e01b7bffffffffffffffffffffffffffffffffffffffffffffffffffffffff1916817bffffffffffffffffffffffffffffffffffffffffffffffffffffffff19161491505061180c565b600190505b949350505050565b60606040518060400160405280600f81526020017f697066733a2f2f5552492d484552450000000000000000000000000000000000815250905090565b606061185c82610ea1565b61189b576040517f08c379a0000000000000000000000000000000000000000000000000000000008152600401611892906126b5565b60405180910390fd5b60006118a5611814565b905060008151116118c557604051806020016040528060008152506118f0565b806118cf84611bea565b6040516020016118e092919061242d565b6040516020818303038152906040525b915050919050565b600073ffffffffffffffffffffffffffffffffffffffff168273ffffffffffffffffffffffffffffffffffffffff161415611968576040517f08c379a000000000000000000000000000000000000000000000000000000000815260040161195f90612615565b60405180910390fd5b61197181610ea1565b156119b1576040517f08c379a00000000000000000000000000000000000000000000000000000000081526004016119a890612535565b60405180910390fd5b6119bd600083836115ca565b6001600360008473ffffffffffffffffffffffffffffffffffffffff1673ffffffffffffffffffffffffffffffffffffffff1681526020019081526020016000206000828254611a0d91906127e9565b92505081905550816002600083815260200190815260200160002060006101000a81548173ffffffffffffffffffffffffffffffffffffffff021916908373ffffffffffffffffffffffffffffffffffffffff160217905550808273ffffffffffffffffffffffffffffffffffffffff16600073ffffffffffffffffffffffffffffffffffffffff167fddf252ad1be2c89b69c2b068fc378daa952ba7f163c4a11628f55a4df523b3ef60405160405180910390a45050565b6000611ad182610808565b9050611adf816000846115ca565b611aea600083610f15565b6001600360008373ffffffffffffffffffffffffffffffffffffffff1673ffffffffffffffffffffffffffffffffffffffff1681526020019081526020016000206000828254611b3a9190612870565b925050819055506002600083815260200190815260200160002060006101000a81549073ffffffffffffffffffffffffffffffffffffffff021916905581600073ffffffffffffffffffffffffffffffffffffffff168273ffffffffffffffffffffffffffffffffffffffff167fddf252ad1be2c89b69c2b068fc378daa952ba7f163c4a11628f55a4df523b3ef60405160405180910390a45050565b600080823b905060008111915050919050565b60606000821415611c32576040518060400160405280600181526020017f30000000000000000000000000000000000000000000000000000000000000008152509050611d92565b600082905060005b60008214611c64578080611c4d906129bd565b915050600a82611c5d919061283f565b9150611c3a565b60008167ffffffffffffffff811115611ca6577f4e487b7100000000000000000000000000000000000000000000000000000000600052604160045260246000fd5b6040519080825280601f01601f191660200182016040528015611cd85781602001600182028036833780820191505090505b5090505b60008514611d8b57600182611cf19190612870565b9150600a85611d009190612a06565b6030611d0c91906127e9565b60f81b818381518110611d48577f4e487b7100000000000000000000000000000000000000000000000000000000600052603260045260246000fd5b60200101907effffffffffffffffffffffffffffffffffffffffffffffffffffffffffffff1916908160001a905350600a85611d84919061283f565b9450611cdc565b8093505050505b919050565b508054611da39061295a565b6000825580601f10611db55750611dd4565b601f016020900490600052602060002090810190611dd39190611dd7565b5b50565b5b80821115611df0576000816000905550600101611dd8565b5090565b6000611e07611e0284612775565b612750565b905082815260208101848484011115611e1f57600080fd5b611e2a848285612918565b509392505050565b600081359050611e4181612ffa565b92915050565b600081359050611e5681613011565b92915050565b600081359050611e6b81613028565b92915050565b600081519050611e8081613028565b92915050565b600082601f830112611e9757600080fd5b8135611ea7848260208601611df4565b91505092915050565b600081359050611ebf8161303f565b92915050565b600060208284031215611ed757600080fd5b6000611ee584828501611e32565b91505092915050565b60008060408385031215611f0157600080fd5b6000611f0f85828601611e32565b9250506020611f2085828601611e32565b9150509250929050565b600080600060608486031215611f3f57600080fd5b6000611f4d86828701611e32565b9350506020611f5e86828701611e32565b9250506040611f6f86828701611eb0565b9150509250925092565b60008060008060808587031215611f8f57600080fd5b6000611f9d87828801611e32565b9450506020611fae87828801611e32565b9350506040611fbf87828801611eb0565b925050606085013567ffffffffffffffff811115611fdc57600080fd5b611fe887828801611e86565b91505092959194509250565b6000806040838503121561200757600080fd5b600061201585828601611e32565b925050602061202685828601611e47565b9150509250929050565b6000806040838503121561204357600080fd5b600061205185828601611e32565b925050602061206285828601611eb0565b9150509250929050565b60006020828403121561207e57600080fd5b600061208c84828501611e5c565b91505092915050565b6000602082840312156120a757600080fd5b60006120b584828501611e71565b91505092915050565b6000602082840312156120d057600080fd5b60006120de84828501611eb0565b91505092915050565b6120f0816128a4565b82525050565b6120ff816128b6565b82525050565b6000612110826127a6565b61211a81856127bc565b935061212a818560208601612927565b61213381612af3565b840191505092915050565b6000612149826127b1565b61215381856127cd565b9350612163818560208601612927565b61216c81612af3565b840191505092915050565b6000612182826127b1565b61218c81856127de565b935061219c818560208601612927565b80840191505092915050565b60006121b56032836127cd565b91506121c082612b04565b604082019050919050565b60006121d86026836127cd565b91506121e382612b53565b604082019050919050565b60006121fb601c836127cd565b915061220682612ba2565b602082019050919050565b600061221e6024836127cd565b915061222982612bcb565b604082019050919050565b60006122416019836127cd565b915061224c82612c1a565b602082019050919050565b6000612264602c836127cd565b915061226f82612c43565b604082019050919050565b60006122876038836127cd565b915061229282612c92565b604082019050919050565b60006122aa602a836127cd565b91506122b582612ce1565b604082019050919050565b60006122cd6029836127cd565b91506122d882612d30565b604082019050919050565b60006122f06020836127cd565b91506122fb82612d7f565b602082019050919050565b60006123136031836127cd565b915061231e82612da8565b604082019050919050565b6000612336602c836127cd565b915061234182612df7565b604082019050919050565b60006123596020836127cd565b915061236482612e46565b602082019050919050565b600061237c6029836127cd565b915061238782612e6f565b604082019050919050565b600061239f602f836127cd565b91506123aa82612ebe565b604082019050919050565b60006123c26021836127cd565b91506123cd82612f0d565b604082019050919050565b60006123e56031836127cd565b91506123f082612f5c565b604082019050919050565b60006124086030836127cd565b915061241382612fab565b604082019050919050565b6124278161290e565b82525050565b60006124398285612177565b91506124458284612177565b91508190509392505050565b600060208201905061246660008301846120e7565b92915050565b600060808201905061248160008301876120e7565b61248e60208301866120e7565b61249b604083018561241e565b81810360608301526124ad8184612105565b905095945050505050565b60006020820190506124cd60008301846120f6565b92915050565b600060208201905081810360008301526124ed818461213e565b905092915050565b6000602082019050818103600083015261250e816121a8565b9050919050565b6000602082019050818103600083015261252e816121cb565b9050919050565b6000602082019050818103600083015261254e816121ee565b9050919050565b6000602082019050818103600083015261256e81612211565b9050919050565b6000602082019050818103600083015261258e81612234565b9050919050565b600060208201905081810360008301526125ae81612257565b9050919050565b600060208201905081810360008301526125ce8161227a565b9050919050565b600060208201905081810360008301526125ee8161229d565b9050919050565b6000602082019050818103600083015261260e816122c0565b9050919050565b6000602082019050818103600083015261262e816122e3565b9050919050565b6000602082019050818103600083015261264e81612306565b9050919050565b6000602082019050818103600083015261266e81612329565b9050919050565b6000602082019050818103600083015261268e8161234c565b9050919050565b600060208201905081810360008301526126ae8161236f565b9050919050565b600060208201905081810360008301526126ce81612392565b9050919050565b600060208201905081810360008301526126ee816123b5565b9050919050565b6000602082019050818103600083015261270e816123d8565b9050919050565b6000602082019050818103600083015261272e816123fb565b9050919050565b600060208201905061274a600083018461241e565b92915050565b600061275a61276b565b9050612766828261298c565b919050565b6000604051905090565b600067ffffffffffffffff8211156127905761278f612ac4565b5b61279982612af3565b9050602081019050919050565b600081519050919050565b600081519050919050565b600082825260208201905092915050565b600082825260208201905092915050565b600081905092915050565b60006127f48261290e565b91506127ff8361290e565b9250827fffffffffffffffffffffffffffffffffffffffffffffffffffffffffffffffff0382111561283457612833612a37565b5b828201905092915050565b600061284a8261290e565b91506128558361290e565b92508261286557612864612a66565b5b828204905092915050565b600061287b8261290e565b91506128868361290e565b92508282101561289957612898612a37565b5b828203905092915050565b60006128af826128ee565b9050919050565b60008115159050919050565b60007fffffffff0000000000000000000000000000000000000000000000000000000082169050919050565b600073ffffffffffffffffffffffffffffffffffffffff82169050919050565b6000819050919050565b82818337600083830152505050565b60005b8381101561294557808201518184015260208101905061292a565b83811115612954576000848401525b50505050565b6000600282049050600182168061297257607f821691505b6020821081141561298657612985612a95565b5b50919050565b61299582612af3565b810181811067ffffffffffffffff821117156129b4576129b3612ac4565b5b80604052505050565b60006129c88261290e565b91507fffffffffffffffffffffffffffffffffffffffffffffffffffffffffffffffff8214156129fb576129fa612a37565b5b600182019050919050565b6000612a118261290e565b9150612a1c8361290e565b925082612a2c57612a2b612a66565b5b828206905092915050565b7f4e487b7100000000000000000000000000000000000000000000000000000000600052601160045260246000fd5b7f4e487b7100000000000000000000000000000000000000000000000000000000600052601260045260246000fd5b7f4e487b7100000000000000000000000000000000000000000000000000000000600052602260045260246000fd5b7f4e487b7100000000000000000000000000000000000000000000000000000000600052604160045260246000fd5b6000601f19601f8301169050919050565b7f4552433732313a207472616e7366657220746f206e6f6e20455243373231526560008201527f63656976657220696d706c656d656e7465720000000000000000000000000000602082015250565b7f4f776e61626c653a206e6577206f776e657220697320746865207a65726f206160008201527f6464726573730000000000000000000000000000000000000000000000000000602082015250565b7f4552433732313a20746f6b656e20616c7265616479206d696e74656400000000600082015250565b7f4552433732313a207472616e7366657220746f20746865207a65726f2061646460008201527f7265737300000000000000000000000000000000000000000000000000000000602082015250565b7f4552433732313a20617070726f766520746f2063616c6c657200000000000000600082015250565b7f4552433732313a206f70657261746f7220717565727920666f72206e6f6e657860008201527f697374656e7420746f6b656e0000000000000000000000000000000000000000602082015250565b7f4552433732313a20617070726f76652063616c6c6572206973206e6f74206f7760008201527f6e6572206e6f7220617070726f76656420666f7220616c6c0000000000000000602082015250565b7f4552433732313a2062616c616e636520717565727920666f7220746865207a6560008201527f726f206164647265737300000000000000000000000000000000000000000000602082015250565b7f4552433732313a206f776e657220717565727920666f72206e6f6e657869737460008201527f656e7420746f6b656e0000000000000000000000000000000000000000000000602082015250565b7f4552433732313a206d696e7420746f20746865207a65726f2061646472657373600082015250565b7f45524337323155524953746f726167653a2055524920717565727920666f722060008201527f6e6f6e6578697374656e7420746f6b656e000000000000000000000000000000602082015250565b7f4552433732313a20617070726f76656420717565727920666f72206e6f6e657860008201527f697374656e7420746f6b656e0000000000000000000000000000000000000000602082015250565b7f4f776e61626c653a2063616c6c6572206973206e6f7420746865206f776e6572600082015250565b7f4552433732313a207472616e73666572206f6620746f6b656e2074686174206960008201527f73206e6f74206f776e0000000000000000000000000000000000000000000000602082015250565b7f4552433732314d657461646174613a2055524920717565727920666f72206e6f60008201527f6e6578697374656e7420746f6b656e0000000000000000000000000000000000602082015250565b7f4552433732313a20617070726f76616c20746f2063757272656e74206f776e6560008201527f7200000000000000000000000000000000000000000000000000000000000000602082015250565b7f4552433732313a207472616e736665722063616c6c6572206973206e6f74206f60008201527f776e6572206e6f7220617070726f766564000000000000000000000000000000602082015250565b7f4552433732314275726e61626c653a2063616c6c6572206973206e6f74206f7760008201527f6e6572206e6f7220617070726f76656400000000000000000000000000000000602082015250565b613003816128a4565b811461300e57600080fd5b50565b61301a816128b6565b811461302557600080fd5b50565b613031816128c2565b811461303c57600080fd5b50565b6130488161290e565b811461305357600080fd5b5056fea2646970667358221220935c7499db0516ad06f608675db2ff0b3d5845b6dd02149622988c22d3cc9eb064736f6c63430008020033",
  "linkReferences": {},
  "deployedLinkReferences": {}
}