{
  "_format": "hh-sol-artifact-1",
  "contractName": "PoeNft",
  "sourceName": "contracts/PoeNft.sol",
  "abi": [
    {
      "inputs": [],
      "stateMutability": "nonpayable",
      "type": "constructor"
    },
    {
      "anonymous": false,
      "inputs": [
        {
          "indexed": true,
          "internalType": "address",
          "name": "owner",
          "type": "address"
        },
        {
          "indexed": true,
          "internalType": "address",
          "name": "approved",
          "type": "address"
        },
        {
          "indexed": true,
          "internalType": "uint256",
          "name": "tokenId",
          "type": "uint256"
        }
      ],
      "name": "Approval",
      "type": "event"
    },
    {
      "anonymous": false,
      "inputs": [
        {
          "indexed": true,
          "internalType": "address",
          "name": "owner",
          "type": "address"
        },
        {
          "indexed": true,
          "internalType": "address",
          "name": "operator",
          "type": "address"
        },
        {
          "indexed": false,
          "internalType": "bool",
          "name": "approved",
          "type": "bool"
        }
      ],
      "name": "ApprovalForAll",
      "type": "event"
    },
    {
      "anonymous": false,
      "inputs": [
        {
          "indexed": true,
          "internalType": "address",
          "name": "previousOwner",
          "type": "address"
        },
        {
          "indexed": true,
          "internalType": "address",
          "name": "newOwner",
          "type": "address"
        }
      ],
      "name": "OwnershipTransferred",
      "type": "event"
    },
    {
      "anonymous": false,
      "inputs": [
        {
          "indexed": true,
          "internalType": "address",
          "name": "from",
          "type": "address"
        },
        {
          "indexed": true,
          "internalType": "address",
          "name": "to",
          "type": "address"
        },
        {
          "indexed": true,
          "internalType": "uint256",
          "name": "tokenId",
          "type": "uint256"
        }
      ],
      "name": "Transfer",
      "type": "event"
    },
    {
      "inputs": [
        {
          "internalType": "address",
          "name": "to",
          "type": "address"
        },
        {
          "internalType": "uint256",
          "name": "tokenId",
          "type": "uint256"
        }
      ],
      "name": "approve",
      "outputs": [],
      "stateMutability": "nonpayable",
      "type": "function"
    },
    {
      "inputs": [
        {
          "internalType": "address",
          "name": "owner",
          "type": "address"
        }
      ],
      "name": "balanceOf",
      "outputs": [
        {
          "internalType": "uint256",
          "name": "",
          "type": "uint256"
        }
      ],
      "stateMutability": "view",
      "type": "function"
    },
    {
      "inputs": [
        {
          "internalType": "uint256",
          "name": "tokenId",
          "type": "uint256"
        }
      ],
      "name": "getApproved",
      "outputs": [
        {
          "internalType": "address",
          "name": "",
          "type": "address"
        }
      ],
      "stateMutability": "view",
      "type": "function"
    },
    {
      "inputs": [
        {
          "internalType": "address",
          "name": "owner",
          "type": "address"
        },
        {
          "internalType": "address",
          "name": "operator",
          "type": "address"
        }
      ],
      "name": "isApprovedForAll",
      "outputs": [
        {
          "internalType": "bool",
          "name": "",
          "type": "bool"
        }
      ],
      "stateMutability": "view",
      "type": "function"
    },
    {
      "inputs": [
        {
          "internalType": "address",
          "name": "receiver",
          "type": "address"
        },
        {
          "internalType": "string",
          "name": "tokenURI",
          "type": "string"
        }
      ],
      "name": "mintToken",
      "outputs": [
        {
          "internalType": "uint256",
          "name": "",
          "type": "uint256"
        }
      ],
      "stateMutability": "nonpayable",
      "type": "function"
    },
    {
      "inputs": [],
      "name": "name",
      "outputs": [
        {
          "internalType": "string",
          "name": "",
          "type": "string"
        }
      ],
      "stateMutability": "view",
      "type": "function"
    },
    {
      "inputs": [],
      "name": "owner",
      "outputs": [
        {
          "internalType": "address",
          "name": "",
          "type": "address"
        }
      ],
      "stateMutability": "view",
      "type": "function"
    },
    {
      "inputs": [
        {
          "internalType": "uint256",
          "name": "tokenId",
          "type": "uint256"
        }
      ],
      "name": "ownerOf",
      "outputs": [
        {
          "internalType": "address",
          "name": "",
          "type": "address"
        }
      ],
      "stateMutability": "view",
      "type": "function"
    },
    {
      "inputs": [],
      "name": "renounceOwnership",
      "outputs": [],
      "stateMutability": "nonpayable",
      "type": "function"
    },
    {
      "inputs": [
        {
          "internalType": "address",
          "name": "from",
          "type": "address"
        },
        {
          "internalType": "address",
          "name": "to",
          "type": "address"
        },
        {
          "internalType": "uint256",
          "name": "tokenId",
          "type": "uint256"
        }
      ],
      "name": "safeTransferFrom",
      "outputs": [],
      "stateMutability": "nonpayable",
      "type": "function"
    },
    {
      "inputs": [
        {
          "internalType": "address",
          "name": "from",
          "type": "address"
        },
        {
          "internalType": "address",
          "name": "to",
          "type": "address"
        },
        {
          "internalType": "uint256",
          "name": "tokenId",
          "type": "uint256"
        },
        {
          "internalType": "bytes",
          "name": "_data",
          "type": "bytes"
        }
      ],
      "name": "safeTransferFrom",
      "outputs": [],
      "stateMutability": "nonpayable",
      "type": "function"
    },
    {
      "inputs": [
        {
          "internalType": "address",
          "name": "operator",
          "type": "address"
        },
        {
          "internalType": "bool",
          "name": "approved",
          "type": "bool"
        }
      ],
      "name": "setApprovalForAll",
      "outputs": [],
      "stateMutability": "nonpayable",
      "type": "function"
    },
    {
      "inputs": [
        {
          "internalType": "bytes4",
          "name": "interfaceId",
          "type": "bytes4"
        }
      ],
      "name": "supportsInterface",
      "outputs": [
        {
          "internalType": "bool",
          "name": "",
          "type": "bool"
        }
      ],
      "stateMutability": "view",
      "type": "function"
    },
    {
      "inputs": [],
      "name": "symbol",
      "outputs": [
        {
          "internalType": "string",
          "name": "",
          "type": "string"
        }
      ],
      "stateMutability": "view",
      "type": "function"
    },
    {
      "inputs": [
        {
          "internalType": "uint256",
          "name": "tokenId",
          "type": "uint256"
        }
      ],
      "name": "tokenURI",
      "outputs": [
        {
          "internalType": "string",
          "name": "",
          "type": "string"
        }
      ],
      "stateMutability": "view",
      "type": "function"
    },
    {
      "inputs": [
        {
          "internalType": "address",
          "name": "from",
          "type": "address"
        },
        {
          "internalType": "address",
          "name": "to",
          "type": "address"
        },
        {
          "internalType": "uint256",
          "name": "tokenId",
          "type": "uint256"
        }
      ],
      "name": "transferFrom",
      "outputs": [],
      "stateMutability": "nonpayable",
      "type": "function"
    },
    {
      "inputs": [
        {
          "internalType": "address",
          "name": "newOwner",
          "type": "address"
        }
      ],
      "name": "transferOwnership",
      "outputs": [],
      "stateMutability": "nonpayable",
      "type": "function"
    }
  ],
  "bytecode": "0x60806040523480156200001157600080fd5b506040518060400160405280600681526020017f506f654e667400000000000000000000000000000000000000000000000000008152506040518060400160405280600381526020017f504f450000000000000000000000000000000000000000000000000000000000815250816000908051906020019062000096929190620001a6565b508060019080519060200190620000af929190620001a6565b505050620000d2620000c6620000d860201b60201c565b620000e060201b60201c565b620002bb565b600033905090565b6000600760009054906101000a900473ffffffffffffffffffffffffffffffffffffffff16905081600760006101000a81548173ffffffffffffffffffffffffffffffffffffffff021916908373ffffffffffffffffffffffffffffffffffffffff1602179055508173ffffffffffffffffffffffffffffffffffffffff168173ffffffffffffffffffffffffffffffffffffffff167f8be0079c531659141344cd1fd0a4f28419497f9722a3daafe3b4186f6b6457e060405160405180910390a35050565b828054620001b49062000256565b90600052602060002090601f016020900481019282620001d8576000855562000224565b82601f10620001f357805160ff191683800117855562000224565b8280016001018555821562000224579182015b828111156200022357825182559160200191906001019062000206565b5b50905062000233919062000237565b5090565b5b808211156200025257600081600090555060010162000238565b5090565b600060028204905060018216806200026f57607f821691505b602082108114156200028657620002856200028c565b5b50919050565b7f4e487b7100000000000000000000000000000000000000000000000000000000600052602260045260246000fd5b612f3f80620002cb6000396000f3fe608060405234801561001057600080fd5b506004361061010b5760003560e01c806370a08231116100a2578063a22cb46511610071578063a22cb465146102b8578063b88d4fde146102d4578063c87b56dd146102f0578063e985e9c514610320578063f2fde38b146103505761010b565b806370a0823114610242578063715018a6146102725780638da5cb5b1461027c57806395d89b411461029a5761010b565b806323b872dd116100de57806323b872dd146101aa5780633d02d0c9146101c657806342842e0e146101f65780636352211e146102125761010b565b806301ffc9a71461011057806306fdde0314610140578063081812fc1461015e578063095ea7b31461018e575b600080fd5b61012a60048036038101906101259190611eee565b61036c565b604051610137919061233a565b60405180910390f35b61014861044e565b6040516101559190612355565b60405180910390f35b61017860048036038101906101739190611f40565b6104e0565b60405161018591906122d3565b60405180910390f35b6101a860048036038101906101a39190611eb2565b610565565b005b6101c460048036038101906101bf9190611d58565b61067d565b005b6101e060048036038101906101db9190611e5e565b6106dd565b6040516101ed91906125b7565b60405180910390f35b610210600480360381019061020b9190611d58565b610715565b005b61022c60048036038101906102279190611f40565b610735565b60405161023991906122d3565b60405180910390f35b61025c60048036038101906102579190611cf3565b6107e7565b60405161026991906125b7565b60405180910390f35b61027a61089f565b005b610284610927565b60405161029191906122d3565b60405180910390f35b6102a2610951565b6040516102af9190612355565b60405180910390f35b6102d260048036038101906102cd9190611e22565b6109e3565b005b6102ee60048036038101906102e99190611da7565b610b64565b005b61030a60048036038101906103059190611f40565b610bc6565b6040516103179190612355565b60405180910390f35b61033a60048036038101906103359190611d1c565b610d18565b604051610347919061233a565b60405180910390f35b61036a60048036038101906103659190611cf3565b610dac565b005b60007f80ac58cd000000000000000000000000000000000000000000000000000000007bffffffffffffffffffffffffffffffffffffffffffffffffffffffff1916827bffffffffffffffffffffffffffffffffffffffffffffffffffffffff1916148061043757507f5b5e139f000000000000000000000000000000000000000000000000000000007bffffffffffffffffffffffffffffffffffffffffffffffffffffffff1916827bffffffffffffffffffffffffffffffffffffffffffffffffffffffff1916145b80610447575061044682610ea4565b5b9050919050565b60606000805461045d9061280d565b80601f01602080910402602001604051908101604052809291908181526020018280546104899061280d565b80156104d65780601f106104ab576101008083540402835291602001916104d6565b820191906000526020600020905b8154815290600101906020018083116104b957829003601f168201915b5050505050905090565b60006104eb82610f0e565b61052a576040517f08c379a0000000000000000000000000000000000000000000000000000000008152600401610521906124f7565b60405180910390fd5b6004600083815260200190815260200160002060009054906101000a900473ffffffffffffffffffffffffffffffffffffffff169050919050565b600061057082610735565b90508073ffffffffffffffffffffffffffffffffffffffff168373ffffffffffffffffffffffffffffffffffffffff1614156105e1576040517f08c379a00000000000000000000000000000000000000000000000000000000081526004016105d890612577565b60405180910390fd5b8073ffffffffffffffffffffffffffffffffffffffff16610600610f7a565b73ffffffffffffffffffffffffffffffffffffffff16148061062f575061062e81610629610f7a565b610d18565b5b61066e576040517f08c379a000000000000000000000000000000000000000000000000000000000815260040161066590612437565b60405180910390fd5b6106788383610f82565b505050565b61068e610688610f7a565b8261103b565b6106cd576040517f08c379a00000000000000000000000000000000000000000000000000000000081526004016106c490612597565b60405180910390fd5b6106d8838383611119565b505050565b60006106e96008611375565b60006106f5600861138b565b90506107018482611399565b61070b8184611567565b8091505092915050565b61073083838360405180602001604052806000815250610b64565b505050565b6000806002600084815260200190815260200160002060009054906101000a900473ffffffffffffffffffffffffffffffffffffffff169050600073ffffffffffffffffffffffffffffffffffffffff168173ffffffffffffffffffffffffffffffffffffffff1614156107de576040517f08c379a00000000000000000000000000000000000000000000000000000000081526004016107d590612477565b60405180910390fd5b80915050919050565b60008073ffffffffffffffffffffffffffffffffffffffff168273ffffffffffffffffffffffffffffffffffffffff161415610858576040517f08c379a000000000000000000000000000000000000000000000000000000000815260040161084f90612457565b60405180910390fd5b600360008373ffffffffffffffffffffffffffffffffffffffff1673ffffffffffffffffffffffffffffffffffffffff168152602001908152602001600020549050919050565b6108a7610f7a565b73ffffffffffffffffffffffffffffffffffffffff166108c5610927565b73ffffffffffffffffffffffffffffffffffffffff161461091b576040517f08c379a000000000000000000000000000000000000000000000000000000000815260040161091290612517565b60405180910390fd5b61092560006115db565b565b6000600760009054906101000a900473ffffffffffffffffffffffffffffffffffffffff16905090565b6060600180546109609061280d565b80601f016020809104026020016040519081016040528092919081815260200182805461098c9061280d565b80156109d95780601f106109ae576101008083540402835291602001916109d9565b820191906000526020600020905b8154815290600101906020018083116109bc57829003601f168201915b5050505050905090565b6109eb610f7a565b73ffffffffffffffffffffffffffffffffffffffff168273ffffffffffffffffffffffffffffffffffffffff161415610a59576040517f08c379a0000000000000000000000000000000000000000000000000000000008152600401610a50906123f7565b60405180910390fd5b8060056000610a66610f7a565b73ffffffffffffffffffffffffffffffffffffffff1673ffffffffffffffffffffffffffffffffffffffff16815260200190815260200160002060008473ffffffffffffffffffffffffffffffffffffffff1673ffffffffffffffffffffffffffffffffffffffff16815260200190815260200160002060006101000a81548160ff0219169083151502179055508173ffffffffffffffffffffffffffffffffffffffff16610b13610f7a565b73ffffffffffffffffffffffffffffffffffffffff167f17307eab39ab6107e8899845ad3d59bd9653f200f220920489ca2b5937696c3183604051610b58919061233a565b60405180910390a35050565b610b75610b6f610f7a565b8361103b565b610bb4576040517f08c379a0000000000000000000000000000000000000000000000000000000008152600401610bab90612597565b60405180910390fd5b610bc0848484846116a1565b50505050565b6060610bd182610f0e565b610c10576040517f08c379a0000000000000000000000000000000000000000000000000000000008152600401610c07906124d7565b60405180910390fd5b6000600660008481526020019081526020016000208054610c309061280d565b80601f0160208091040260200160405190810160405280929190818152602001828054610c5c9061280d565b8015610ca95780601f10610c7e57610100808354040283529160200191610ca9565b820191906000526020600020905b815481529060010190602001808311610c8c57829003601f168201915b505050505090506000610cba6116fd565b9050600081511415610cd0578192505050610d13565b600082511115610d05578082604051602001610ced9291906122af565b60405160208183030381529060405292505050610d13565b610d0e84611714565b925050505b919050565b6000600560008473ffffffffffffffffffffffffffffffffffffffff1673ffffffffffffffffffffffffffffffffffffffff16815260200190815260200160002060008373ffffffffffffffffffffffffffffffffffffffff1673ffffffffffffffffffffffffffffffffffffffff16815260200190815260200160002060009054906101000a900460ff16905092915050565b610db4610f7a565b73ffffffffffffffffffffffffffffffffffffffff16610dd2610927565b73ffffffffffffffffffffffffffffffffffffffff1614610e28576040517f08c379a0000000000000000000000000000000000000000000000000000000008152600401610e1f90612517565b60405180910390fd5b600073ffffffffffffffffffffffffffffffffffffffff168173ffffffffffffffffffffffffffffffffffffffff161415610e98576040517f08c379a0000000000000000000000000000000000000000000000000000000008152600401610e8f90612397565b60405180910390fd5b610ea1816115db565b50565b60007f01ffc9a7000000000000000000000000000000000000000000000000000000007bffffffffffffffffffffffffffffffffffffffffffffffffffffffff1916827bffffffffffffffffffffffffffffffffffffffffffffffffffffffff1916149050919050565b60008073ffffffffffffffffffffffffffffffffffffffff166002600084815260200190815260200160002060009054906101000a900473ffffffffffffffffffffffffffffffffffffffff1673ffffffffffffffffffffffffffffffffffffffff1614159050919050565b600033905090565b816004600083815260200190815260200160002060006101000a81548173ffffffffffffffffffffffffffffffffffffffff021916908373ffffffffffffffffffffffffffffffffffffffff160217905550808273ffffffffffffffffffffffffffffffffffffffff16610ff583610735565b73ffffffffffffffffffffffffffffffffffffffff167f8c5be1e5ebec7d5bd14f71427d1e84f3dd0314c0f7b2291e5b200ac8c7c3b92560405160405180910390a45050565b600061104682610f0e565b611085576040517f08c379a000000000000000000000000000000000000000000000000000000000815260040161107c90612417565b60405180910390fd5b600061109083610735565b90508073ffffffffffffffffffffffffffffffffffffffff168473ffffffffffffffffffffffffffffffffffffffff1614806110ff57508373ffffffffffffffffffffffffffffffffffffffff166110e7846104e0565b73ffffffffffffffffffffffffffffffffffffffff16145b80611110575061110f8185610d18565b5b91505092915050565b8273ffffffffffffffffffffffffffffffffffffffff1661113982610735565b73ffffffffffffffffffffffffffffffffffffffff161461118f576040517f08c379a000000000000000000000000000000000000000000000000000000000815260040161118690612537565b60405180910390fd5b600073ffffffffffffffffffffffffffffffffffffffff168273ffffffffffffffffffffffffffffffffffffffff1614156111ff576040517f08c379a00000000000000000000000000000000000000000000000000000000081526004016111f6906123d7565b60405180910390fd5b61120a8383836117bb565b611215600082610f82565b6001600360008573ffffffffffffffffffffffffffffffffffffffff1673ffffffffffffffffffffffffffffffffffffffff16815260200190815260200160002060008282546112659190612723565b925050819055506001600360008473ffffffffffffffffffffffffffffffffffffffff1673ffffffffffffffffffffffffffffffffffffffff16815260200190815260200160002060008282546112bc919061269c565b92505081905550816002600083815260200190815260200160002060006101000a81548173ffffffffffffffffffffffffffffffffffffffff021916908373ffffffffffffffffffffffffffffffffffffffff160217905550808273ffffffffffffffffffffffffffffffffffffffff168473ffffffffffffffffffffffffffffffffffffffff167fddf252ad1be2c89b69c2b068fc378daa952ba7f163c4a11628f55a4df523b3ef60405160405180910390a4505050565b6001816000016000828254019250508190555050565b600081600001549050919050565b600073ffffffffffffffffffffffffffffffffffffffff168273ffffffffffffffffffffffffffffffffffffffff161415611409576040517f08c379a0000000000000000000000000000000000000000000000000000000008152600401611400906124b7565b60405180910390fd5b61141281610f0e565b15611452576040517f08c379a0000000000000000000000000000000000000000000000000000000008152600401611449906123b7565b60405180910390fd5b61145e600083836117bb565b6001600360008473ffffffffffffffffffffffffffffffffffffffff1673ffffffffffffffffffffffffffffffffffffffff16815260200190815260200160002060008282546114ae919061269c565b92505081905550816002600083815260200190815260200160002060006101000a81548173ffffffffffffffffffffffffffffffffffffffff021916908373ffffffffffffffffffffffffffffffffffffffff160217905550808273ffffffffffffffffffffffffffffffffffffffff16600073ffffffffffffffffffffffffffffffffffffffff167fddf252ad1be2c89b69c2b068fc378daa952ba7f163c4a11628f55a4df523b3ef60405160405180910390a45050565b61157082610f0e565b6115af576040517f08c379a00000000000000000000000000000000000000000000000000000000081526004016115a690612497565b60405180910390fd5b806006600084815260200190815260200160002090805190602001906115d6929190611b17565b505050565b6000600760009054906101000a900473ffffffffffffffffffffffffffffffffffffffff16905081600760006101000a81548173ffffffffffffffffffffffffffffffffffffffff021916908373ffffffffffffffffffffffffffffffffffffffff1602179055508173ffffffffffffffffffffffffffffffffffffffff168173ffffffffffffffffffffffffffffffffffffffff167f8be0079c531659141344cd1fd0a4f28419497f9722a3daafe3b4186f6b6457e060405160405180910390a35050565b6116ac848484611119565b6116b8848484846117c0565b6116f7576040517f08c379a00000000000000000000000000000000000000000000000000000000081526004016116ee90612377565b60405180910390fd5b50505050565b606060405180602001604052806000815250905090565b606061171f82610f0e565b61175e576040517f08c379a000000000000000000000000000000000000000000000000000000000815260040161175590612557565b60405180910390fd5b60006117686116fd565b9050600081511161178857604051806020016040528060008152506117b3565b8061179284611957565b6040516020016117a39291906122af565b6040516020818303038152906040525b915050919050565b505050565b60006117e18473ffffffffffffffffffffffffffffffffffffffff16611b04565b1561194a578373ffffffffffffffffffffffffffffffffffffffff1663150b7a0261180a610f7a565b8786866040518563ffffffff1660e01b815260040161182c94939291906122ee565b602060405180830381600087803b15801561184657600080fd5b505af192505050801561187757506040513d601f19601f820116820180604052508101906118749190611f17565b60015b6118fa573d80600081146118a7576040519150601f19603f3d011682016040523d82523d6000602084013e6118ac565b606091505b506000815114156118f2576040517f08c379a00000000000000000000000000000000000000000000000000000000081526004016118e990612377565b60405180910390fd5b805181602001fd5b63150b7a0260e01b7bffffffffffffffffffffffffffffffffffffffffffffffffffffffff1916817bffffffffffffffffffffffffffffffffffffffffffffffffffffffff19161491505061194f565b600190505b949350505050565b6060600082141561199f576040518060400160405280600181526020017f30000000000000000000000000000000000000000000000000000000000000008152509050611aff565b600082905060005b600082146119d15780806119ba90612870565b915050600a826119ca91906126f2565b91506119a7565b60008167ffffffffffffffff811115611a13577f4e487b7100000000000000000000000000000000000000000000000000000000600052604160045260246000fd5b6040519080825280601f01601f191660200182016040528015611a455781602001600182028036833780820191505090505b5090505b60008514611af857600182611a5e9190612723565b9150600a85611a6d91906128b9565b6030611a79919061269c565b60f81b818381518110611ab5577f4e487b7100000000000000000000000000000000000000000000000000000000600052603260045260246000fd5b60200101907effffffffffffffffffffffffffffffffffffffffffffffffffffffffffffff1916908160001a905350600a85611af191906126f2565b9450611a49565b8093505050505b919050565b600080823b905060008111915050919050565b828054611b239061280d565b90600052602060002090601f016020900481019282611b455760008555611b8c565b82601f10611b5e57805160ff1916838001178555611b8c565b82800160010185558215611b8c579182015b82811115611b8b578251825591602001919060010190611b70565b5b509050611b999190611b9d565b5090565b5b80821115611bb6576000816000905550600101611b9e565b5090565b6000611bcd611bc8846125f7565b6125d2565b905082815260208101848484011115611be557600080fd5b611bf08482856127cb565b509392505050565b6000611c0b611c0684612628565b6125d2565b905082815260208101848484011115611c2357600080fd5b611c2e8482856127cb565b509392505050565b600081359050611c4581612ead565b92915050565b600081359050611c5a81612ec4565b92915050565b600081359050611c6f81612edb565b92915050565b600081519050611c8481612edb565b92915050565b600082601f830112611c9b57600080fd5b8135611cab848260208601611bba565b91505092915050565b600082601f830112611cc557600080fd5b8135611cd5848260208601611bf8565b91505092915050565b600081359050611ced81612ef2565b92915050565b600060208284031215611d0557600080fd5b6000611d1384828501611c36565b91505092915050565b60008060408385031215611d2f57600080fd5b6000611d3d85828601611c36565b9250506020611d4e85828601611c36565b9150509250929050565b600080600060608486031215611d6d57600080fd5b6000611d7b86828701611c36565b9350506020611d8c86828701611c36565b9250506040611d9d86828701611cde565b9150509250925092565b60008060008060808587031215611dbd57600080fd5b6000611dcb87828801611c36565b9450506020611ddc87828801611c36565b9350506040611ded87828801611cde565b925050606085013567ffffffffffffffff811115611e0a57600080fd5b611e1687828801611c8a565b91505092959194509250565b60008060408385031215611e3557600080fd5b6000611e4385828601611c36565b9250506020611e5485828601611c4b565b9150509250929050565b60008060408385031215611e7157600080fd5b6000611e7f85828601611c36565b925050602083013567ffffffffffffffff811115611e9c57600080fd5b611ea885828601611cb4565b9150509250929050565b60008060408385031215611ec557600080fd5b6000611ed385828601611c36565b9250506020611ee485828601611cde565b9150509250929050565b600060208284031215611f0057600080fd5b6000611f0e84828501611c60565b91505092915050565b600060208284031215611f2957600080fd5b6000611f3784828501611c75565b91505092915050565b600060208284031215611f5257600080fd5b6000611f6084828501611cde565b91505092915050565b611f7281612757565b82525050565b611f8181612769565b82525050565b6000611f9282612659565b611f9c818561266f565b9350611fac8185602086016127da565b611fb5816129a6565b840191505092915050565b6000611fcb82612664565b611fd58185612680565b9350611fe58185602086016127da565b611fee816129a6565b840191505092915050565b600061200482612664565b61200e8185612691565b935061201e8185602086016127da565b80840191505092915050565b6000612037603283612680565b9150612042826129b7565b604082019050919050565b600061205a602683612680565b915061206582612a06565b604082019050919050565b600061207d601c83612680565b915061208882612a55565b602082019050919050565b60006120a0602483612680565b91506120ab82612a7e565b604082019050919050565b60006120c3601983612680565b91506120ce82612acd565b602082019050919050565b60006120e6602c83612680565b91506120f182612af6565b604082019050919050565b6000612109603883612680565b915061211482612b45565b604082019050919050565b600061212c602a83612680565b915061213782612b94565b604082019050919050565b600061214f602983612680565b915061215a82612be3565b604082019050919050565b6000612172602e83612680565b915061217d82612c32565b604082019050919050565b6000612195602083612680565b91506121a082612c81565b602082019050919050565b60006121b8603183612680565b91506121c382612caa565b604082019050919050565b60006121db602c83612680565b91506121e682612cf9565b604082019050919050565b60006121fe602083612680565b915061220982612d48565b602082019050919050565b6000612221602983612680565b915061222c82612d71565b604082019050919050565b6000612244602f83612680565b915061224f82612dc0565b604082019050919050565b6000612267602183612680565b915061227282612e0f565b604082019050919050565b600061228a603183612680565b915061229582612e5e565b604082019050919050565b6122a9816127c1565b82525050565b60006122bb8285611ff9565b91506122c78284611ff9565b91508190509392505050565b60006020820190506122e86000830184611f69565b92915050565b60006080820190506123036000830187611f69565b6123106020830186611f69565b61231d60408301856122a0565b818103606083015261232f8184611f87565b905095945050505050565b600060208201905061234f6000830184611f78565b92915050565b6000602082019050818103600083015261236f8184611fc0565b905092915050565b600060208201905081810360008301526123908161202a565b9050919050565b600060208201905081810360008301526123b08161204d565b9050919050565b600060208201905081810360008301526123d081612070565b9050919050565b600060208201905081810360008301526123f081612093565b9050919050565b60006020820190508181036000830152612410816120b6565b9050919050565b60006020820190508181036000830152612430816120d9565b9050919050565b60006020820190508181036000830152612450816120fc565b9050919050565b600060208201905081810360008301526124708161211f565b9050919050565b6000602082019050818103600083015261249081612142565b9050919050565b600060208201905081810360008301526124b081612165565b9050919050565b600060208201905081810360008301526124d081612188565b9050919050565b600060208201905081810360008301526124f0816121ab565b9050919050565b60006020820190508181036000830152612510816121ce565b9050919050565b60006020820190508181036000830152612530816121f1565b9050919050565b6000602082019050818103600083015261255081612214565b9050919050565b6000602082019050818103600083015261257081612237565b9050919050565b600060208201905081810360008301526125908161225a565b9050919050565b600060208201905081810360008301526125b08161227d565b9050919050565b60006020820190506125cc60008301846122a0565b92915050565b60006125dc6125ed565b90506125e8828261283f565b919050565b6000604051905090565b600067ffffffffffffffff82111561261257612611612977565b5b61261b826129a6565b9050602081019050919050565b600067ffffffffffffffff82111561264357612642612977565b5b61264c826129a6565b9050602081019050919050565b600081519050919050565b600081519050919050565b600082825260208201905092915050565b600082825260208201905092915050565b600081905092915050565b60006126a7826127c1565b91506126b2836127c1565b9250827fffffffffffffffffffffffffffffffffffffffffffffffffffffffffffffffff038211156126e7576126e66128ea565b5b828201905092915050565b60006126fd826127c1565b9150612708836127c1565b92508261271857612717612919565b5b828204905092915050565b600061272e826127c1565b9150612739836127c1565b92508282101561274c5761274b6128ea565b5b828203905092915050565b6000612762826127a1565b9050919050565b60008115159050919050565b60007fffffffff0000000000000000000000000000000000000000000000000000000082169050919050565b600073ffffffffffffffffffffffffffffffffffffffff82169050919050565b6000819050919050565b82818337600083830152505050565b60005b838110156127f85780820151818401526020810190506127dd565b83811115612807576000848401525b50505050565b6000600282049050600182168061282557607f821691505b6020821081141561283957612838612948565b5b50919050565b612848826129a6565b810181811067ffffffffffffffff8211171561286757612866612977565b5b80604052505050565b600061287b826127c1565b91507fffffffffffffffffffffffffffffffffffffffffffffffffffffffffffffffff8214156128ae576128ad6128ea565b5b600182019050919050565b60006128c4826127c1565b91506128cf836127c1565b9250826128df576128de612919565b5b828206905092915050565b7f4e487b7100000000000000000000000000000000000000000000000000000000600052601160045260246000fd5b7f4e487b7100000000000000000000000000000000000000000000000000000000600052601260045260246000fd5b7f4e487b7100000000000000000000000000000000000000000000000000000000600052602260045260246000fd5b7f4e487b7100000000000000000000000000000000000000000000000000000000600052604160045260246000fd5b6000601f19601f8301169050919050565b7f4552433732313a207472616e7366657220746f206e6f6e20455243373231526560008201527f63656976657220696d706c656d656e7465720000000000000000000000000000602082015250565b7f4f776e61626c653a206e6577206f776e657220697320746865207a65726f206160008201527f6464726573730000000000000000000000000000000000000000000000000000602082015250565b7f4552433732313a20746f6b656e20616c7265616479206d696e74656400000000600082015250565b7f4552433732313a207472616e7366657220746f20746865207a65726f2061646460008201527f7265737300000000000000000000000000000000000000000000000000000000602082015250565b7f4552433732313a20617070726f766520746f2063616c6c657200000000000000600082015250565b7f4552433732313a206f70657261746f7220717565727920666f72206e6f6e657860008201527f697374656e7420746f6b656e0000000000000000000000000000000000000000602082015250565b7f4552433732313a20617070726f76652063616c6c6572206973206e6f74206f7760008201527f6e6572206e6f7220617070726f76656420666f7220616c6c0000000000000000602082015250565b7f4552433732313a2062616c616e636520717565727920666f7220746865207a6560008201527f726f206164647265737300000000000000000000000000000000000000000000602082015250565b7f4552433732313a206f776e657220717565727920666f72206e6f6e657869737460008201527f656e7420746f6b656e0000000000000000000000000000000000000000000000602082015250565b7f45524337323155524953746f726167653a2055524920736574206f66206e6f6e60008201527f6578697374656e7420746f6b656e000000000000000000000000000000000000602082015250565b7f4552433732313a206d696e7420746f20746865207a65726f2061646472657373600082015250565b7f45524337323155524953746f726167653a2055524920717565727920666f722060008201527f6e6f6e6578697374656e7420746f6b656e000000000000000000000000000000602082015250565b7f4552433732313a20617070726f76656420717565727920666f72206e6f6e657860008201527f697374656e7420746f6b656e0000000000000000000000000000000000000000602082015250565b7f4f776e61626c653a2063616c6c6572206973206e6f7420746865206f776e6572600082015250565b7f4552433732313a207472616e73666572206f6620746f6b656e2074686174206960008201527f73206e6f74206f776e0000000000000000000000000000000000000000000000602082015250565b7f4552433732314d657461646174613a2055524920717565727920666f72206e6f60008201527f6e6578697374656e7420746f6b656e0000000000000000000000000000000000602082015250565b7f4552433732313a20617070726f76616c20746f2063757272656e74206f776e6560008201527f7200000000000000000000000000000000000000000000000000000000000000602082015250565b7f4552433732313a207472616e736665722063616c6c6572206973206e6f74206f60008201527f776e6572206e6f7220617070726f766564000000000000000000000000000000602082015250565b612eb681612757565b8114612ec157600080fd5b50565b612ecd81612769565b8114612ed857600080fd5b50565b612ee481612775565b8114612eef57600080fd5b50565b612efb816127c1565b8114612f0657600080fd5b5056fea26469706673582212206ef0e17ab543afaaf47f841a3959cee69770f00dc40997a455b834ac23f8fe5364736f6c63430008020033",
  "linkReferences": {},
  "deployedLinkReferences": {}
}